:04000000D8EF39F00C
:1072600001000000E47FDD7FEB7FF27FF87FD37FBA
:10727000056E010E036E0550C009A0EC39F0020E38
:10728000036E0550C009A0EC39F01200056E010E26
:10729000036E0550B809A0EC39F0020E036E0550DC
:1072A000B809A0EC39F01200818A010E036E3F0E7E
:1072B000A0EC39F0020E036E3F0EA0EC39F0000E88
:1072C00038EC39F012000F6E0DC006F0010E076E9B
:1072D0000F50D8EC3AF00DC006F0010E076E0F50BB
:1072E000D8EC3AF00E6E0E50120001500302F3CFAC
:1072F00005F0F4CF06F001500402F35006260250C8
:107300000302F350062605C001F006C002F0120089
:10731000026E9568800E936E0204D8B48190020EBE
:107320000218D8B481928186819400F0818800F09F
:1073300083CF01F0819801BEF9D78180818212004C
:10734000046E035088EC39F0800E936E0304D8B4B9
:107350008190020E0318D8B481928196819400F036
:10736000818800F004C083FF000E956E00F08198C4
:10737000818081821200056E400E05600CD0010EE6
:10738000036E05504009A0EC39F0020E036E400E6A
:10739000A0EC39F01200010E036E7F0EA0EC39F064
:1073A000020E036E0550C00F4009A0EC39F0120028
:1073B000640EF66E720EF76E000EF86E01EED0F0EF
:1073C00010EE0CF00900F5CFEEFFE550E150FAE1C8
:1073D000600EF66E720EF76E000EF86E00EE3EF066
:1073E00010EE04F00900F5CFEEFFE550E150FAE1B0
:1073F000000EF86E000138EF3DF03EC001F03FC0D6
:1074000002F040C003F041C004F06D0E056E4E0E58
:10741000066EC60E076E410E086E50EC3AF001C0C3
:107420003EF002C03FF003C040F004C041F0390E0E
:107430003E26300E3F22000E4022000E4122FF0E5B
:1074400040140D6E7F0E41140E6E1200186E000E69
:107450001A6E000E196E11D0155019240C6E16C03C
:10746000F6FF17C0F7FF0800F5CF0DF01850A2EC9B
:107470003BF0164A172A194A1A2A16C0F6FF17C0F7
:10748000F7FF0800F5500A0AD8B4120016C0F6FF3C
:1074900017C0F7FF0800F5500009D8B41200DCD778
:1074A000000E096E000E0A6E000E0B6E000E0C6EC2
:1074B00001A008D00550092606500A2207500B22C9
:1074C00008500C22D8900536063607360836D89074
:1074D0000432033202320132015002100310041050
:1074E000D8A4E6D709C001F00AC002F00BC003F02F
:1074F0000CC004F01200086E400E066004D0000EAE
:107500000A6E010E03D0000E0A6E020E096E09C04B
:107510000BF0085046EC39F00650BBEC39F00B503C
:1075200088EC39F0800E936E0B04D8B48190020E73
:107530000B18D8B481928196818400F0818800F084
:1075400007C083FF000E956E00F0819881808182D4
:107550001200126E12C013F0146A1CD00DC015F088
:10756000166A09D015C006F0000E076E13507BECAA
:107570003AF0154A162A0E500F6E106A15500F5C1D
:107580001050800A116E1650800A1158D8B0EAD7F0
:10759000134A142A0C500F6E106A13500F5C1050CF
:1075A000800A116E1450800A1158D8A01200D6D744
:1075B000086E400E066004D0000E0A6E010E03D065
:1075C000000E0A6E020E096E09C00CF00750D8B406
:1075D00006D0085046EC39F00650BBEC39F00C50A0
:1075E00088EC39F09568800E936E0C04D8B48190C5
:1075F000020E0C18D8B481928186818400F08188B3
:1076000000F083CF0BF08198818081820B501200B3
:107610001A6E1AC011F0D8901132D8901132D89049
:1076200011321150186E196A1AC011F0070E111696
:10763000010E126E000E136E112A03D0D89012366E
:107640001336112EFBD7121C146E131C156E10C0AE
:107650000DF0185063EC39F0116E1150166E176A68
:1076600010C006F014501614076E18507BEC3AF058
:1076700012001A6E1AC011F0D8901132D89011323F
:10768000D89011321150186E196A1AC011F0070EF5
:107690001116010E126E000E136E112A03D0D8902F
:1076A00012361336112EFBD712C014F013C015F08A
:1076B00010C00DF0185063EC39F0116E1150166EB9
:1076C000176A10C006F014501610076E18507BECA5
:1076D0003AF01200000E066E02AE06D0016C021ED9
:1076E000D8B0022A010E066E04AE04D0036C041E4C
:1076F000D8B0042A03500410D8B418D0010E056E77
:1077000004D0D89003360436052A04AEFAD70350C5
:10771000015C04500258D8A004D00350015E04500C
:10772000025AD89004320332052EF1D70650D8B44D
:1077300004D0016C021ED8B0022A01C001F002C0C0
:1077400002F01200106EE00E0D24016E026AFF0EB0
:107750000222000E046E050E036E75EC39F001C0B6
:1077600011F002C012F00C50050DF3CF0CF0000E1A
:10777000146E000E136EDF0E1124F66E7D0E1220B5
:10778000F76E0800F5500E6E0F6A0CC006F00EC0C2
:1077900007F010507BEC3AF00C2A114A122A134AD7
:1077A000142A14BEE8D7145005E1050E135CD8B0B6
:1077B0001200E1D71200000E066E04AE06D0036C74
:1077C000041ED8B0042A010E066E02AE06D0016C6B
:1077D000021ED8B0022A010E061A000E086E000E14
:1077E000076E03500410D8B41CD0010E056E04D0EF
:1077F000D89003360436052A04AEFAD7D890073657
:1078000008360350015C04500258D8A005D003503C
:10781000015E0450025A0780D89004320332052ECC
:10782000EDD70650D8B404D0076C081ED8B0082A8B
:1078300007C001F008C002F01200396E17AE15D073
:1078400015C00CF02D0E0D6E3950A2EC3BF0152A30
:1078500016C001F017C002F0FF0E046E036875EC4D
:1078600039F001C016F002C017F0000E3B6E000E9A
:107870003A6E16501710D8A426D0300E196E3A4A18
:107880003B2A21D03A50190FD96EDA6A16C001F09E
:1078900017C002F0000E046E0A0E036E6AEC3BF095
:1078A0000150300FDF6E3A4A3B2A16C001F017C074
:1078B00002F0000E046E0A0E036EDBEC3BF001C01A
:1078C00016F002C017F017BE20D01750DBE11604E7
:1078D000D8A01BD0D7D73A06D8A03B063A50190FEC
:1078E000D96EDA6ADF50186E1850166E176A15C016
:1078F0000CF016C00DF03950A2EC3BF0152A7F0EAB
:10790000156403D0392A000E156E3BBE12003B50A1
:10791000E2E13A04D8A01200DED721502210D8B4F8
:107920002DD020BE06D0205029E1640E1F5CD8B0B7
:1079300025D01FC023F020C024F0D8902336243651
:107940001BC025F01CC026F02350252624502622DB
:10795000FE0E2524D96EFF0E2620DA6ED8901F3435
:10796000E16E2034E26E1B50E1261C50E222DECF95
:10797000E6FFDDCFE5FF1F4A202A2FD01FC023F0EE
:1079800020C024F0D890233624361BC025F01CC01C
:1079900026F02350252624502622FF0E2524D96EBA
:1079A000FF0E2620DA6EDF50106E1FC027F020C0B9
:1079B00028F0D890273628361BC029F01CC02AF0A2
:1079C0002750292628502A22FE0E2924D96EFF0E80
:1079D0002A20DA6EDF5008EC3BF0FF0E1F242B6EDE
:1079E000FF0E20202C6E2CBE2BD02C5003E12B043C
:1079F000D8A026D02BC023F02CC024F0D89023365A
:107A000024361BC025F01CC026F023502526245008
:107A10002622FE0E2524D96EFF0E2620DA6ED8907F
:107A20002B34E16E2C34E26E1B50E1261C50E22216
:107A3000DECFE6FFDDCFE5FF2B06D8A02C06D3D79F
:107A40001BC0D9FF1CC0DAFF1DC0DFFF20EE01F014
:107A50001B50D9261C50DA221EC0DFFF1EC010F0BA
:107A60001D5039EC3BF01FC01BF020C01CF0120071
:107A7000000E0F01386F000E396F000E3A6F000EC6
:107A80003B6F9268000E956E800E936E830E946E1F
:107A9000000E806E000E836E000E816E000E826EF0
:107AA00054EC39F0070E0C6E000E0D6E7F0E0E6E4C
:107AB000000EA9EC3AF0000E38EC39F0000E01018E
:107AC000CE6F000ECF6F000EC96F010EC86F000E93
:107AD000006F000E016FFDEC39F00D503F0BCC6FC5
:107AE000FDEC39F00D507F0BCD6F060E156ED30EE9
:107AF000166E7F0E176E020E26EC3AF0060E156E0D
:107B0000F80E166E7F0E176E030E26EC3AF0060E78
:107B1000156EF20E166E7F0E176E040E26EC3AF0FE
:107B2000060E156EEB0E166E7F0E176E050E26EC0A
:107B30003AF0150E3D6E4B0E3C6EBE0EE82EFED793
:107B40003C2EFCD73D2EFAD700D0070E0C6E000E4F
:107B50000D6E7F0E0E6E000EA9EC3AF0120E156E31
:107B6000DD0E166E7F0E176E060E26EC3AF0120E24
:107B7000156EE40E166E7F0E176E070E26EC3AF0A9
:107B8000160E156E000E176E000E166E060E1DEC0C
:107B90003CF0160E156E000E176E000E166E070ED8
:107BA0001DEC3CF001C110F00101005139EC3BF03B
:107BB000CDC110F00101CC5139EC3BF0000E0101B8
:107BC000CB6F000ECA6F820E3C6EDE0EE82EFED723
:107BD0003C2EFCD782AE38D00101CE293F0BCE6FB0
:107BE000070E0C6E6D0E0D6E7F0E0E6E060EA9EC5E
:107BF0003AF0160E156ECEC116F0176A060E1DEC81
:107C00003CF0160E156ECFC116F0176A070E1DEC6C
:107C10003CF0000E1B6E010E1C6ECEC11DF0CFC1DC
:107C20001EF0C8C11FF0C9C120F0CAC121F0CBC1EC
:107C300022F08DEC3CF01BC0C8F11CC0C9F1000E55
:107C40000101CB6F000ECA6F82A038D00101CF298D
:107C50007F0BCF6F070E0C6E6D0E0D6E7F0E0E6ECE
:107C6000060EA9EC3AF0160E156ECEC116F0176A84
:107C7000060E1DEC3CF0160E156ECFC116F0176AFD
:107C8000070E1DEC3CF0000E1B6E010E1C6ECEC1EB
:107C90001DF0CFC11EF0C8C11FF0C9C120F0CAC17C
:107CA00021F0CBC122F08DEC3CF01BC0C8F11CC010
:107CB000C9F1000E0101CB6F000ECA6F81AE38D042
:107CC0000101CE053F0BCE6F070E0C6E6D0E0D6ED3
:107CD0007F0E0E6E060EA9EC3AF0160E156ECEC192
:107CE00016F0176A060E1DEC3CF0160E156ECFC18D
:107CF00016F0176A070E1DEC3CF0000E1B6E010E0D
:107D00001C6ECEC11DF0CFC11EF0C8C11FF0C9C18D
:107D100020F0CAC121F0CBC122F08DEC3CF01BC099
:107D2000C8F11CC0C9F1000E0101CB6F000ECA6F73
:107D300082A238D00101CF057F0BCF6F070E0C6EEA
:107D40006D0E0D6E7F0E0E6E060EA9EC3AF0160E3D
:107D5000156ECEC116F0176A060E1DEC3CF0160E1D
:107D6000156ECFC116F0176A070E1DEC3CF0000E21
:107D70001B6E010E1C6ECEC11DF0CFC11EF0C8C11E
:107D80001FF0C9C120F0CAC121F0CBC122F08DEC97
:107D90003CF01BC0C8F11CC0C9F1000E0101CB6F43
:107DA000000ECA6F01010051CC19D8A40CD70151A3
:107DB000CD19D8A408D7000ECB6F010ECA6FFDEC09
:107DC00039F00D503F0BCC6FFDEC39F00D507F0BAF
:107DD000CD6FCDC110F0CC5139EC3BF0F4D60000A2
:107DE0000000000000005F00000007000700147F93
:107DF000147F14242A7F2A122313086462364955FB
:107E000022500005030000001C2241000041221CFA
:107E100000082A1C2A0808083E0808005030000004
:107E20000808080808003030000020100804023E4E
:107E30005149453E00427F4000426151494621413F
:107E4000454B311814127F1027454545393C4A49A6
:107E5000493001710905033649494936064949291E
:107E60001E0036360000005636000000081422417D
:107E700000141414004122140800020151090632B2
:107E80004979413E7E1111117E7F494949363E4173
:107E90004141227F4141221C7F494949417F0909D3
:107EA00001013E414151327F0808087F00417F4176
:107EB000002040413F017F081422417F4040404064
:107EC0007F0204027F7F0408107F3E4141413E7FD4
:107ED000090909063E4151215E7F09192946464993
:107EE00049493101017F01013F4040403F1F20408F
:107EF000201F7F2018207F63140814630304780474
:107F000003615149454300007F41410204081020AC
:107F100041417F0000040201020440404040400013
:107F20000102040020545454787F484444383844B3
:107F3000444420384444487F3854545418087E0937
:107F40000102081454543C7F0804047800447D4026
:107F5000002040443D00007F10284400417F400045
:107F60007C041804787C0804047838444444387C41
:107F700014141408081414187C7C080404084854C9
:107F8000545420043F4440203C4040207C1C20406E
:107F9000201C3C4030403C44281028440C50505099
:107FA0003C4464544C44000836410000007F00000B
:107FB000004136080008082A1C08081C2A0808087E
:107FC00000AA000800383838000000000000000057
:107FD0000000004C3720474C4344200A0058203D05
:107FE00020200A0059203D20200A004E69636F209E
:0F7FF0000A004A494E200A004E6F61200A000025
:020000040030CA
:0E000000FF021900FFA580FF0FC00FE00F40A8
:00000001FF
